:020000040800F2
:1000000000500020312900089510000897100008C2
:10001000991000089B1000089D10000800000000C7
:100020000000000000000000000000009F10000819
:10003000A110000800000000A3100008A51000088F
:100040007929000879290008792900087929000808
:1000500079290008792900087929000879290008F8
:1000600079290008792900087929000879290008E8
:10007000792900087929000879290008B5100008B5
:1000800079290008792900087929000879290008C8
:1000900079290008792900087929000879290008B8
:1000A00079290008792900087929000879290008A8
:1000B0007929000879290008792900087929000898
:1000C0007929000879290008792900087929000888
:1000D000792900087929000879290008C110000849
:1000E000CD100008792900087929000800000000D7
:1000F0000000000000000000000000000000000000
:0C01000000000000000000005FF808F1A3
:10010C0010B5054C237833B9044B13B10448AFF345
:10011C0000800123237010BD70000020000000003F
:10012C003832000808B5034B1BB103490348AFF341
:10013C00008008BD00000000740000203832000868
:10014C0081F0004102E000BF83F0004330B54FEA7C
:10015C0041044FEA430594EA050F08BF90EA020FE9
:10016C001FBF54EA000C55EA020C7FEA645C7FEA7C
:10017C00655C00F0E2804FEA5454D4EB5555B8BF9F
:10018C006D420CDD2C4480EA020281EA030382EA10
:10019C00000083EA010180EA020281EA0303362DA2
:1001AC0088BF30BD11F0004F4FEA01314FF4801C75
:1001BC004CEA113102D0404261EB410113F0004F87
:1001CC004FEA03334CEA133302D0524263EB43033E
:1001DC0094EA050F00F0A780A4F10104D5F1200EDC
:1001EC000DDB02FA0EFC22FA05F2801841F1000137
:1001FC0003FA0EF2801843FA05F359410EE0A5F10B
:10020C0020050EF1200E012A03FA0EFC28BF4CF03B
:10021C00020C43FA05F3C01851EBE37101F00045F1
:10022C0007D54FF0000EDCF1000C7EEB00006EEBFE
:10023C000101B1F5801F1BD3B1F5001F0CD3490888
:10024C005FEA30004FEA3C0C04F101044FEA4452DF
:10025C0012F5800F80F09A80BCF1004F08BF5FEA66
:10026C00500C50F1000041EB045141EA050130BD46
:10027C005FEA4C0C404141EB010111F4801FA4F1E9
:10028C000104E9D191F0000F04BF01460020B1FA3E
:10029C0081F308BF2033A3F10B03B3F120020CDA76
:1002AC000C3208DD02F1140CC2F10C0201FA0CF054
:1002BC0021FA02F10CE002F11402D8BFC2F1200CB9
:1002CC0001FA02F120FA0CFCDCBF41EA0C0190406F
:1002DC00E41AA2BF01EB0451294330BD6FEA0404B8
:1002EC001F3C1CDA0C340EDC04F11404C4F12002A3
:1002FC0020FA04F001FA02F340EA030021FA04F3B5
:10030C0045EA030130BDC4F10C04C4F1200220FA0B
:10031C0002F001FA04F340EA0300294630BD21FA49
:10032C0004F0294630BD94F0000F83F4801306BF0F
:10033C0081F480110134013D4EE77FEA645C18BF03
:10034C007FEA655C29D094EA050F08BF90EA020F9A
:10035C0005D054EA000C04BF1946104630BD91EA92
:10036C00030F1EBF0021002030BD5FEA545C05D195
:10037C004000494128BF41F0004130BD14F58004D4
:10038C003CBF01F5801130BD01F0004545F0FE4148
:10039C0041F470014FF0000030BD7FEA645C1ABF7D
:1003AC00194610467FEA655C1CBF0B46024650EAB4
:1003BC00013406BF52EA033591EA030F41F40021E0
:1003CC0030BD00BF90F0000F04BF0021704730B566
:1003DC004FF4806404F132044FF000054FF000013B
:1003EC0050E700BF90F0000F04BF0021704730B5FC
:1003FC004FF4806404F1320410F0004548BF4042D1
:10040C004FF000013EE700BF42004FEAE2014FEA25
:10041C0031014FEA02701FBF12F07F4393F07F4F00
:10042C0081F06051704792F0000F14BF93F07F4F32
:10043C00704730B54FF4607401F0004521F0004175
:10044C0020E700BF50EA010208BF704730B54FF0FB
:10045C0000050AE050EA010208BF704730B511F000
:10046C00004502D5404261EB41014FF4806404F138
:10047C0032045FEA915C3FF4DCAE4FF003025FEABA
:10048C00DC0C18BF03325FEADC0C18BF033202EB42
:10049C00DC02C2F1200300FA03FC20FA02F001FA9C
:1004AC0003FE40EA0E0021FA02F11444C1E600BF3B
:1004BC0070B54FF0FF0C4CF4E06C1CEA11541DBFEE
:1004CC001CEA135594EA0C0F95EA0C0F00F0DEF8B9
:1004DC002C4481EA030621EA4C5123EA4C5350EA9E
:1004EC00013518BF52EA033541F4801143F48013EF
:1004FC0038D0A0FB02CE4FF00005E1FB02E506F080
:10050C000042E0FB03E54FF00006E1FB03569CF0D4
:10051C00000F18BF4EF0010EA4F1FF04B6F5007FDA
:10052C0064F5407404D25FEA4E0E6D4146EB06064C
:10053C0042EAC62141EA55514FEAC52040EA5E50D5
:10054C004FEACE2EB4F1FD0C88BFBCF5E06F1ED87F
:10055C00BEF1004F08BF5FEA500E50F1000041EBB6
:10056C00045170BD06F0004646EA010140EA020063
:10057C0081EA0301B4EB5C04C2BFD4EB0C0541EA85
:10058C00045170BD41F480114FF0000E013C00F39A
:10059C00AB8014F1360FDEBF002001F0004170BDBE
:1005AC00C4F10004203C35DA0C341BDC04F11404D7
:1005BC00C4F1200500FA05F320FA04F001FA05F263
:1005CC0040EA020001F0004221F0004110EBD37030
:1005DC0021FA04F642EB06015EEA430E08BF20EA5C
:1005EC00D37070BDC4F10C04C4F1200500FA04F3FF
:1005FC0020FA05F001FA04F240EA020001F0004191
:10060C0010EBD37041F100015EEA430E08BF20EA03
:10061C00D37070BDC4F1200500FA05F24EEA020E4B
:10062C0020FA04F301FA05F243EA020321FA04F07A
:10063C0001F0004121FA04F220EA020000EBD37031
:10064C005EEA430E08BF20EAD37070BD94F0000F31
:10065C000FD101F00046400041EB010111F4801F65
:10066C0008BF013CF7D041EA060195F0000F18BF16
:10067C00704703F00046520043EB030313F4801F52
:10068C0008BF013DF7D043EA0603704794EA0C0F0C
:10069C000CEA135518BF95EA0C0F0CD050EA410622
:1006AC0018BF52EA4306D1D181EA030101F000419F
:1006BC004FF0000070BD50EA410606BF10461946C7
:1006CC0052EA430619D094EA0C0F02D150EA0136D3
:1006DC0013D195EA0C0F05D152EA03361CBF104614
:1006EC0019460AD181EA030101F0004141F0FE41B3
:1006FC0041F470014FF0000070BD41F0FE4141F437
:10070C00780170BD70B54FF0FF0C4CF4E06C1CEA36
:10071C0011541DBF1CEA135594EA0C0F95EA0C0FEB
:10072C0000F0A7F8A4EB050481EA030E52EA0335A6
:10073C004FEA013100F088804FEA03334FF08055C7
:10074C0045EA131343EA12634FEA022245EA1115F4
:10075C0045EA10654FEA00260EF000419D4208BFA5
:10076C00964244F1FD0404F5407402D25B084FEA52
:10077C003202B61A65EB03055B084FEA32024FF4FE
:10078C0080104FF4002CB6EB020E75EB030E22BF5B
:10079C00B61A754640EA0C005B084FEA3202B6EB1B
:1007AC00020E75EB030E22BFB61A754640EA5C00CA
:1007BC005B084FEA3202B6EB020E75EB030E22BF5A
:1007CC00B61A754640EA9C005B084FEA3202B6EB5B
:1007DC00020E75EB030E22BFB61A754640EADC001A
:1007EC0055EA060E18D04FEA051545EA16754FEA7C
:1007FC0006164FEAC30343EA52734FEAC2025FEA9A
:10080C001C1CC0D111F4801F0BD141EA00014FF028
:10081C0000004FF0004CB6E711F4801F04BF0143F9
:10082C000020B4F1FD0C88BFBCF5E06F3FF6AFAE15
:10083C00B5EB030C04BFB6EB020C5FEA500C50F1A5
:10084C00000041EB045170BD0EF0004E4EEA113128
:10085C0014EB5C04C2BFD4EB0C0541EA045170BD2F
:10086C0041F480114FF0000E013C90E645EA060E73
:10087C008DE60CEA135594EA0C0F08BF95EA0C0FA1
:10088C003FF43BAF94EA0C0F0AD150EA01347FF4E9
:10089C0034AF95EA0C0F7FF425AF104619462CE7C0
:1008AC0095EA0C0F06D152EA03353FF4FDAE104623
:1008BC00194622E750EA410618BF52EA43067FF474
:1008CC00C5AE50EA41047FF40DAF52EA43057FF404
:1008DC00EBAE12E74FEA410212F5001215D211D518
:1008EC006FF47873B3EB625212D94FEAC12343F021
:1008FC00004343EA505311F0004F23FA02F018BFA3
:10090C00404270474FF00000704750EA013005D16B
:10091C0011F0004008BF6FF0004070474FF000002E
:10092C00704700BF10B5134CA142B8BF2146BDF8AB
:10093C000C40624303FB002342F210708142A8BFBB
:10094C000146BDF8080000FB013000280CDD44F620
:10095C001E6300F5CB500430984207DC41F287331C
:10096C00984298BF002010BD002010BD44F61F60B7
:10097C0010BD00BF18FCFFFF70B508441646FFF70A
:10098C0031FD0022084BFFF793FD044630460D461F
:10099C00FFF728FD02460B4620462946FFF7D6FBFB
:1009AC00FFF798FF00B270BD0000E03F401A400016
:1009BC0000B27047081A00B2704700000022034BC7
:1009CC001B685A625A6A8242FCD37047A801002005
:1009DC004378592B83BF0023437003780A338ABFB3
:1009EC000133437003707047437813B10A3B437073
:1009FC00704703880BB90370F9E75A2343700378E7
:100A0C00013B0370704730B504460D4685B010228B
:100A1C000021684601F0D6FF69462046009500F09B
:100A2C0031FF05B030BD30B585B004460D461022FF
:100A3C000021684601F0C6FF012301930223694699
:100A4C0020460095039300F01DFF05B030BD00005B
:100A5C0010B508211D48FFF7E6FF012208211B48AD
:100A6C0000F0F8FF4FF4FA7000F046FD0022082168
:100A7C00164800F0EFFF44F25060FFF79FFF012291
:100A8C000821124800F0E6FF1420FFF797FF002220
:100A9C0008210E4800F0DEFF08210C48FFF7B3FFD9
:100AAC0008210A4800F0D0FF70B95020FFF786FFEC
:100ABC000821064800F0C8FF041C18BF0124502070
:100ACC00FFF77CFF204610BD0024F8E70010014022
:100ADC00F8B505460C460727214E0821304600F094
:100AEC00B3FF0028F9D02820FFF768FF0821304613
:100AFC0000F0AAFF01222B78BA40F8B923EA0203CE
:100B0C002B7017F1FF37E8D20726154D0821284620
:100B1C0000F09AFF0028F9D02820FFF74FFF08219A
:100B2C00284600F091FF01222378B24078B923EADD
:100B3C000203237016F1FF36E8D2F8BD13432B7075
:100B4C000821304600F080FF0028F9D1D9E7134383
:100B5C0023700821284600F077FF0028F9D1E9E737
:100B6C0000100140FFF7B4BFF8B507460725002475
:100B7C00104E0821304600F067FF0028F9D02820DD
:100B8C00FFF71CFF0821304600F05EFF0123AB404D
:100B9C0030B924EA030415F1FF35EAD23C70F8BDF4
:100BAC001C43E4B20821304600F04EFF0028F9D176
:100BBC00F1E700BF001001400A4B07B55A690F203E
:100BCC0042F001025A6100225B69114603F00103F5
:100BDC000193019B00F0B4FC0F2000F0E5FC03B086
:100BEC005DF804FB001002401022F0B589B00DEB4B
:100BFC000200002101F0E6FE394B3A4E9A6930466C
:100C0C0042F010029A619A69602102F0100200927F
:100C1C00009A9A69002442F020029A619A69324F34
:100C2C0002F020020192019A9A69032542F0040213
:100C3C009A619A6902F004020292029A9A6942F04D
:100C4C0008029A619B69002203F008030393039B3B
:100C5C0000F000FF4FF400530493244B04A93846D2
:100C6C000593069400F00EFE41F6F77304A938467E
:100C7C000493059500F006FE082304A93846049356
:100C8C000594069400F0FEFD49F6927304A93046D3
:100C9C000493059500F0F6FD60230493012305935E
:100CAC00022304A930460793069400F0EBFD4FF2A3
:100CBC00F73304A90E480493059500F0E3FD0423D3
:100CCC0004A90C480493059500F0DCFD224621464E
:100CDC00282000F035FC282000F066FC09B0F0BD9F
:100CEC0000100240000801400010014000001110EB
:100CFC00000C01400014014010B590B028220021D6
:100D0C0006A801F05FFE1422002101A801F05AFE92
:100D1C0001230A93102302240B934FF4601306A8AB
:100D2C000F9306940D9400F0A7FE0F234FF48062EE
:100D3C0001930023214601A8029403930492059386
:100D4C0001F074F810B010BD0A4A10B513880A4CA3
:100D5C0001331380238801331BB2B3F57A7F2380D0
:100D6C0007DB064B06491A88064801F0ADFC002348
:100D7C00238010BDA00000209C0000209E000020BD
:100D8C00BC000020280200200A21037803EB830218
:100D9C004378B3FBF1F303EB42034380704700004D
:100DAC0008B5174B1B78542B1CD007D8492B21D0D6
:100DBC004B2B1BD0442B06D1124814E0692B1BD0B3
:100DCC0008D8642B1AD0BDE8084001220C490E4803
:100DDC0001F099BC6B2B0BD0742BF4D10B48FFF7A3
:100DEC0003FEF0E70948FFF7F3FDECE70848FAE7E4
:100DFC000748F4E70748F6E70648F0E70148EEE74E
:100E0C00B00000205A010020280200205E010020C2
:100E1C005601002052010020002304210A4A01201F
:100E2C0013705370094A13705370094A11703221B0
:100E3C005170084A10705370074A51701A21137080
:100E4C00064A117053707047B8000020B40000209F
:100E5C0056010020520100205A0100205E010020A2
:100E6C002DE980488BB000F023FBFFF745FFFFF71F
:100E7C00BBFE00F069F900F055FAFFF79DFE00F09B
:100E8C0001FA00F06BFA564801F002F90123554AB9
:100E9C000021554801F0FCFA01224021534800F092
:100EAC00D9FD01225249534801F02DFCFFF7B4FF44
:100EBC00DFF878A1DFF87C814F4F504D504EDFF8B2
:100ECC0078B1504C9BF800309BF8012003EB830366
:100EDC0003EB830302EB83034B4A238013885846AE
:100EEC000892AAF80030FFF74FFF4848FFF74CFF75
:100EFC003846FFF749FF2846FFF746FF3046FFF715
:100F0C0043FF4046FFF740FFBBF80230089A2380AE
:100F1C0013883F4CAAF8003021883E4BD9461980E3
:100F2C000993FFF795FD58B13B49481EFFF71AFE90
:100F3C0058460BF10101FFF7CBFD3848FFF714FEC3
:100F4C0071789BF801309BF8002007913178344878
:100F5C0006916978DFF8E4B00591297804917978E5
:100F6C0003913978029198F80110019198F80010CA
:100F7C0000912C4901F02EFD2B4B1880BBF9003051
:100F8C00B3F5FA7F9BDBB9F80210B8F80200FFF753
:100F9C0011FD264B2080B3F90020099BB3F90010FA
:100FAC00FFF7EAFC089B1880099BB4F90000B3F921
:100FBC000010FFF7FBFC1E4B024618800899B4F991
:100FCC00000074887B88B1F9001001946C8800943F
:100FDC00FFF7A8FC034B18600023ABF800306BE75D
:100FEC00A801002098000020E80100200008014022
:100FFC00B0000020280200205601002052010020E1
:10100C005A0100209400002092000020B80000201B
:10101C0090000020B2000020B90000208C000020BD
:10102C00BC000020603200089E00002096000020CA
:10103C008E0000205E010020B4000020A0000020E3
:10104C00704700000E4B82B09A6942F001029A611F
:10105C009A6902F001020092009ADA6942F0805219
:10106C00DA61DB69074A03F080530193019B5368F3
:10107C0023F0E06343F00073536002B0704700BF8D
:10108C0000100240000001407047FEE7FEE7FEE75B
:10109C00FEE770477047704708B5FFF755FEBDE88F
:1010AC00084000F017BA0000014800F057BB00BF21
:1010BC0064010020014801F08DBB00BF2802002014
:1010CC004FF4005000F0CCBC08B50A4B024619682E
:1010DC0009B9094919606946186802448A4206D957
:1010EC0001F046FC0C2303604FF0FF3008BD1A6082
:1010FC0008BD00BFA4000020B00200200F4B1A68EE
:10110C0042F001021A6059680D4A0A405A601A6886
:10111C0022F0847222F480321A601A6822F480223F
:10112C001A605A6822F4FE025A604FF41F029A6049
:10113C004FF00062034B9A60704700BF00100240F2
:10114C000000FFF800ED00E07FB51022002102A89E
:10115C0001F038FC3F2215481549002380E80600B1
:10116C0044F61F62009301938360C2600361436184
:10117C00836101F01FF808B1FFF762FF4FF4805351
:10118C0002A90A48029301F0E1F808B1FFF758FFF1
:10119C000023694605480093019301F001FA08B158
:1011AC00FFF74EFF07B05DF804FB00BFA80100205D
:1011BC00002C014037B503681C4A054693420BD1FD
:1011CC001B4B9A6942F400629A619B6903F40063B9
:1011DC000093009B03B030BDB3F1804FFAD103F5FF
:1011EC000433DA69134C42F00102DA61DB69124A0A
:1011FC0003F001030193019B102384E80C0080226F
:10120C00E2604FF4807222614FF4806200236261CD
:10121C0020222046A360A261E36100F0E9F908B145
:10122C00FFF70EFF6C626562D4E700BF002C014033
:10123C0000100240640100205800024010B5044622
:10124C0086B01022002102A801F0BCFB2368B3F188
:10125C00804F13D103F504339A6902A942F00402BA
:10126C009A619B69064803F004030193019B0123D7
:10127C00029302230393059300F004FB06B010BD08
:10128C000008014010B58EB01022002103A801F017
:10129C0099FB00241C2221460DEB020001940294C0
:1012AC0001F090FB06234FF080421D4880E80C00B3
:1012BC0044F620638460C3600461846100F07AFFAB
:1012CC0008B1FFF7BDFE4FF4805303A914480393F4
:1012DC0001F03CF808B1FFF7B3FE114800F084FFB1
:1012EC0008B1FFF7ADFE002401A90D48019402944A
:1012FC0001F056F908B1FFF7A3FE6023002207A9FD
:10130C0007480793089409940B9400F0B3FF08B1B5
:10131C00FFF796FE0248FFF791FF0EB010BD00BF1D
:10132C00E801002008B54FF4E13E0A480A4B0C22B4
:10133C0080E80840002342618360C36003618361DD
:10134C00C36101F093F918B1BDE80840FFF778BE0E
:10135C0008BD00BF680200200044004008B54FF4EF
:10136C00165E0A480A4B0C2280E8084000234261B2
:10137C008360C36003618361C36101F077F918B1C5
:10138C00BDE80840FFF75CBE08BD00BF2802002086
:10139C0000480040102210B5044688B00DEB020046
:1013AC00002101F00FFB23682A4A93421DD12A4BDE
:1013BC0004A9DA69294842F40032DA61DA6902F4E4
:1013CC0000320092009A9A6942F004029A619B6979
:1013DC0003F004030193019B0C2304930223059354
:1013EC00079300F04FFA08B010BD1D4A9342FAD192
:1013FC00194B04A9DA691B4842F48022DA61DA69D4
:10140C00002402F480220292029A9A6942F00802A5
:10141C009A619B6903F008030393039B4FF4806369
:10142C000493022305930323079300F02BFA4FF444
:10143C00006304A90B4804930594069400F022FA67
:10144C0022462146272000F07BF8272000F0ACF83C
:10145C00C9E700BF004400400010024000080140F2
:10146C0000480040000C014038B50E4B054618787A
:10147C004FF47A73B3FBF0F30B4A1068B0FBF3F044
:10148C0000F0A0F8044658B90F2D09D80246294699
:10149C004FF0FF3000F054F8044B20461D6038BD6F
:1014AC00012038BD040000200000002008000020AE
:1014BC00074A08B51368032043F01003136000F0CB
:1014CC002DF80020FFF7D0FFFFF7BCFD002008BD72
:1014DC0000200240034A044B11681B780B44136034
:1014EC00704700BFA802002004000020014B1868C0
:1014FC00704700BFA802002038B50446FFF7F6FF7E
:10150C000546631C1EBF044B1B78E418FFF7EEFF67
:10151C00401B8442FAD838BD04000020074A000260
:10152C00D36800F4E06023F4E0631B041B0C43F06D
:10153C00BF6343F400330343D360704700ED00E016
:10154C00174B30B5DC68C4F30224C4F10703251D26
:10155C00042B28BF0423062D4FF0010598BF00244F
:10156C0005FA03F303F1FF3388BF033C1940A14094
:10157C0005FA04F4013C2240002842EA01024FEA39
:10158C000212A9BF00F16040064BD2B200F56140D7
:10159C00BBBF00F00F00D2B280F800231A5430BD4C
:1015AC0000ED00E014ED00E0002808DB0123420907
:1015BC0000F01F0003FA00F0014B43F822007047C3
:1015CC0000E100E00138B0F1807F0AD2F021064B37
:1015DC00064A586082F823100020072298601A608F
:1015EC0070470120704700BF10E000E000ED00E004
:1015FC0010B530B314220168134B84680B44B3FB51
:10160C00F2F39B000364114B0A68C363436822F432
:10161C007F522343C46822F03002234304692343DE
:10162C004469234384692343C469234313430B60F4
:10163C000122002380F82120836380F82030184693
:10164C0010BD012010BD00BFF8FFFDBF000002401F
:10165C00F0B590F82040012C35D0012490F82150A1
:10166C0080F82040A5424FF000064FF0020428D12C
:10167C0080F82140046886632668076C26F0010612
:10168C002660C66BBD407560636043680568102BAF
:10169C00C36A0BBFA260A160E160E2604BB123683A
:1016AC0043F00E0323602B68002043F001032B60F2
:1016BC00F0BD236823F004032360236843F00A037E
:1016CC00F0E780F820600220F0BD000090F8213097
:1016DC0010B5022B03D004238363012010BD0368D3
:1016EC001A6822F00E021A601A6822F001021A60BF
:1016FC00184A93421FD0143293421ED01432934294
:10170C001DD0143293421DD0143293421DD014328A
:10171C0093420CBF4FF480134FF080730E4A002499
:10172C005360012380F82130436B80F820407BB15B
:10173C009847204610BD0123F0E71023EEE74FF445
:10174C008073EBE74FF48053E8E74FF48033E5E721
:10175C00184610BD080002400000024070B4042579
:10176C00C66B026C3468036895402542196832D008
:10177C004D0730D51A6896065EBF1A6822F004022F
:10178C001A603E4A934219D01432934218D0143244
:10179C00934217D01432934217D01432934217D07D
:1017AC00143293420CBF4FF480034FF08063344AE1
:1017BC005360C36A002B5ED070BC18470423F6E755
:1017CC004023F4E74FF48063F1E74FF48043EEE7F6
:1017DC004FF48023EBE702259540254235D08D0749
:1017EC0033D51A68940606D41A6822F00A021A60D5
:1017FC00012280F82120214A934219D014329342BD
:10180C0018D01432934217D01432934217D014329A
:10181C00934217D0143293420CBF4FF400134FF085
:10182C000073174A5360002380F82030836AC1E7A5
:10183C000223F6E72023F4E74FF40073F1E74FF4AB
:10184C000053EEE74FF40033EBE7082595402542B3
:10185C0011D009070FD5196821F00E011960012369
:10186C0003FA02F27260836380F82130002380F85F
:10187C002030036B9EE770BC704700BF080002402D
:10188C00000002402DE9F74F00242646664BDFF896
:10189C00A8E1DFF8A8C10A6832FA06F502D103B054
:1018AC00BDE8F08F4FF0010808FA06F802EA0802CA
:1018BC0090457FD14D68122D00F0AA8000F28380F4
:1018CC00022D00F0A28077D8002D00F08980012D28
:1018DC0000F099804FF00F09FF2A93BF824606F162
:1018EC008045083DD0F800B092BFB500D0F804B0E8
:1018FC00AD0009FA05F82BEA080804FA05F588BFCB
:10190C0000F1040A48EA0505CAF80050D1F804A011
:10191C001AF0805F4ED0454D444FAD6926F0030858
:10192C0045F00105BD61BD6908F1804805F0010570
:10193C00019508F5803806F0030B019D4FEA8B0BDF
:10194C00D8F8085009FA0BF925EA0909384DA842CC
:10195C0063D005F58065A84261D005F58065A84285
:10196C005FD005F58065A8420CBF0325042505FA58
:10197C000BF545EA0905C8F808501D681AF4803FB4
:10198C0014BF154395431D605D681AF4003F14BFE6
:10199C00154395435D609D681AF4801F14BF154371
:1019AC0095439D60DD681AF4001F14BF2A4325EA95
:1019BC000202DA6001366EE7032D22D0112D89D197
:1019CC00CC68043486E71B4FBD4209D012D8DFF82F
:1019DC0070904D4504D009F580394D457FF47AAFB0
:1019EC008C68C4B1012C0CBFC0F81080C0F81480F6
:1019FC0008246FE77545F3D06545F1D0DFF84490C6
:101A0C00EBE7002466E7CC6864E7CC68083461E750
:101A1C00CC680C345EE704245CE70025A7E70125BD
:101A2C00A5E70225A3E700BF000401400010024017
:101A3C00000801400000211000003110000032109D
:101A4C0000001110000022108368194214BF0120FD
:101A5C00002070470AB1016170470904FBE7704729
:101A6C0008B5044B5969014202D05861FFF7F7FFE2
:101A7C0008BD00BF000401402DE9F341054608B93B
:101A8C0001203CE00368DB0710D42B689F075DD472
:101A9C002B68190700F194802B685A0700F1BE805F
:101AAC00E869002840F02C81002028E08F4C636806
:101ABC0003F00C03042B07D0636803F00C03082B12
:101ACC0009D16368DE0306D523689C03DDD56B68FA
:101ADC00002BDAD1D4E76B68B3F5803F12D12368C1
:101AEC0043F480332360FFF701FD06462368980317
:101AFC00CBD4FFF7FBFC801B6428F7D9032002B082
:101B0C00BDE8F0819BB9236823F4803323602368FC
:101B1C0023F480232360FFF7E9FC0646236899032E
:101B2C00B3D5FFF7E3FC801B6428F7D9E6E7B3F5E0
:101B3C00A02F236803D143F480232360CFE723F441
:101B4C0080332360236823F48023CBE7674C6368DE
:101B5C0013F00C0F07D0636803F00C03082B10D1A3
:101B6C006368DA030DD423689B0702D52B69012B1C
:101B7C0086D123686A6923F0F80343EAC203236021
:101B8C0086E72A695A4B6AB101221A60FFF7AEFC4C
:101B9C00064623689F07ECD4FFF7A8FC801B02289D
:101BAC00F7D9ABE71A60FFF7A1FC06462368980744
:101BBC007FF56EAFFFF79AFC801B0228F6D99DE7E4
:101BCC00AA694A4C4B4BDAB101221A60FFF78EFC22
:101BDC000646636A9B070DD54FF4FA52464B1B68B9
:101BEC00B3FBF2F3019300BF019B5A1E0192002B31
:101BFC00F9D151E7FFF77AFC801B0228E9D97DE780
:101C0C001A60FFF773FC0646636A9F077FF544AFC3
:101C1C00FFF76CFC801B0228F6D96FE7334CE369A5
:101C2C00D80024D40127E36943F08053E361E369CE
:101C3C0003F080530093009B304E3368D90518D5C0
:101C4C00EB68012B26D1236A43F001032362FFF7D3
:101C5C004DFC41F288368046236A9B073FD5002F06
:101C6C003FF41EAFE36923F08053E36118E70027CC
:101C7C00E2E7336843F480733360FFF737FC804648
:101C8C003368DA05DCD4FFF731FCA0EB08006428DC
:101C9C00F6D933E7ABB9236A41F2883823F0010354
:101CAC002362236A23F004032362FFF71FFC06461A
:101CBC00236A9807D3D5FFF719FC801B4045F7D949
:101CCC001CE7052B236A03D143F004032362BAE714
:101CDC0023F001032362236A23F00403B6E7FFF722
:101CEC0005FCA0EB0800B042B6D907E70010024093
:101CFC00000042428004424200000020007000407C
:101D0C002A4B5A681C4602F00C02082A3DD00023CC
:101D1C00274E022833602BD1FFF7E8FB07462368D8
:101D2C0099011FD42B6AB3F5803F05D16268A9686D
:101D3C0022F400320A436260696A62680B4322F43F
:101D4C0074121343636001233360FFF7CFFB054626
:101D5C0023689A013FF5A8AEFFF7C8FB401B022889
:101D6C00F6D9CBE6FFF7C2FBC01B0228D7D9C5E6D4
:101D7C00FFF7BCFB054623689B017FF595AEFFF78B
:101D8C00B5FB401B0228F6D9B8E601283FF4B7AEE4
:101D9C0058682B6A00F480329A427FF471AE6B6AF9
:101DAC0000F47010C01A18BF0120A8E60010024001
:101DBC006000424230B5194B87B002AC03F11005FC
:101DCC00224618685968083303C2AB421446F7D14F
:101DDC0001238DF80430022311498DF805304B682E
:101DEC0003F00C02082A17D1C3F3834206A802445D
:101DFC00DB0312F8102C0CD54B680A48C3F3404394
:101E0C00504306AA134413F8143CB0FBF3F007B08C
:101E1C0030BD05485043FAE70248F8E75032000855
:101E2C000010024000127A0000093D002DE9F0413B
:101E3C000D46044610B90120BDE8F081454A1368EF
:101E4C0003F007038B4229D321688E0731D4CA07CC
:101E5C0044D4404A136803F007039D4267D32268B9
:101E6C003D4D12F0040F6ED1130706D56B68226935
:101E7C0023F4605343EAC2036B60FFF79BFF6B686C
:101E8C00364AC3F30313D35CD840354B1860354B3B
:101E9C001868FFF7E9FA0020BDE8F081136823F019
:101EAC0007030B431360136803F007039942C2D175
:101EBC00CAE7294B11F0040F1EBF5A6842F4E062C6
:101ECC005A60080742BF5A6842F460525A605A6816
:101EDC00A06822F0F00202435A60B8E762681E4E16
:101EEC00012A33681BD113F4003FA4D0736841F26C
:101EFC00883823F0030313437360FFF7F7FA0746A0
:101F0C007368626803F00C03B3EB820FA1D0FFF788
:101F1C00EDFAC01B4045F3D90320BDE8F081022A3D
:101F2C0002D113F0007FE0E713F0020FDDE7136836
:101F3C0023F007032B431360136803F007039D4240
:101F4C007FF479AF8BE76B68E16823F4E0630B43B4
:101F5C006B6089E70020024000100240A7320008A5
:101F6C000000002008000020044B054A5B68C3F306
:101F7C000223D35C034A1068D8407047001002401B
:101F8C00B732000800000020044B054A5B68C3F31D
:101F9C00C223D35C034A1068D8407047001002403B
:101FAC00B732000800000020036A70B523F001036B
:101FBC000362036A446882690D6822F073022A4343
:101FCC008D6823F002032B430A4DA8420BD1CD6838
:101FDC0023F008032B438E694D6924F44074354378
:101FEC0023F004032C43446082614A684263036219
:101FFC0070BD00BF002C0140036A70B523F48073E0
:10200C000362036A4468C2690D6822F073022A43B2
:10201C008D6823F4007343EA05230B4DA8420DD1C0
:10202C00CD6823F4006343EA05238E694D6924F4DB
:10203C004054354323F4806344EA05144460C26180
:10204C004A68C263036270BD002C0140036A30B55C
:10205C0023F480530362036A4468C2690D6822F456
:10206C00E64242EA05228D6823F4005343EA053325
:10207C00064DA84202BF4D6924F4804444EA8514FD
:10208C004460C2614A680264036230BD002C0140A6
:10209C00022380F83D3003689A6802F00702062A92
:1020AC001EBF1A6842F001021A60012380F83D300D
:1020BC000020704770477047012310B5446A626A6C
:1020CC0084F83D30904206D123772046FFF7F3FF8A
:1020DC000023237710BDA36A984201D10223F3E7B2
:1020EC00E36A984201D10423EEE7236B9842ECD1CA
:1020FC000823E9E77047012310B5446A626A84F843
:10210C003D30904206D123772046FFF7F3FF0023A2
:10211C00237710BDA36A984201D10223F3E7E36A47
:10212C00984201D10423EEE7236B9842ECD10823AB
:10213C00E9E7704708B50123406A80F83D30FFF7A6
:10214C00F8FF08BD1A4A036890420AD0B0F1804FDC
:10215C0007D0A2F59432904203D002F580629042EF
:10216C0015D14A6823F070031343114A90420AD0E8
:10217C00B0F1804F07D0A2F59432904203D002F513
:10218C008062904203D1CA6823F4407313434A69B6
:10219C0023F08003134303608B68C3620B68836274
:1021AC00034B984204BF0B690363012343617047DF
:1021BC00002C014010B50446A0B190F83D3003F05E
:1021CC00FF021BB980F83C20FEF7F4FF02232068C5
:1021DC0084F83D30211DFFF7B5FF0123002084F862
:1021EC003D3010BD012010BD10B50446A0B190F8D3
:1021FC003D3003F0FF021BB980F83C20FFF75AFF7B
:10220C000223206884F83D30211DFFF79BFF01233A
:10221C00002084F83D3010BD012010BD036A70B55C
:10222C0023F010030362036A446882690D6822F488
:10223C00E64242EA05228D6823F0200343EA0513A7
:10224C000B4DA8420DD1CD6823F0800343EA051352
:10225C008E694D6924F44064354323F0400344EA0D
:10226C008504446082614A688263036270BD00BF6A
:10227C00002C014038B590F83C300446012B4FF04F
:10228C00020025D0012384F83D0084F83C300C2A50
:10229C0018D8DFE802F0071717171E1717172F1794
:1022AC00171740002068FFF77FFE236809699A69B9
:1022BC0042F008029A619A6922F004029A619A69C2
:1022CC000A439A610123002084F83D3084F83C00D5
:1022DC0038BD2068FFF7A2FF236809699A6942F4A8
:1022EC0000629A619A6922F480629A619A6942EA60
:1022FC000122E6E72068FFF77FFE23680969DA69A7
:10230C0042F00802DA61DA6922F00402DA61DA6971
:10231C000A43DA61D6E72068FFF798FE236809695B
:10232C00DA6942F40062DA61DA6922F48062DA6115
:10233C00DA6942EA0122ECE710B584680A4324F416
:10234C007F4442EA03232343836010BD90F83C3062
:10235C0070B5012B04464FF0020019D0012384F80C
:10236C003D00206884F83C30836823F47F4323F0DD
:10237C00770383600B68402B65D015D8102B0CD0DD
:10238C0007D853B10123002084F83D3084F83C0079
:10239C0070BD202B01D0302BF4D1826843F00703A1
:1023AC0022F0700213431AE0602B34D019D8502B52
:1023BC00E8D14A68CE68016A056A21F00A0125F065
:1023CC000105056283690A4323F0F00343EA06130F
:1023DC0083610262836823F0700343F057038360C8
:1023EC00D0E7702B0CD0B3F5005FCBD1CB684A682B
:1023FC008968FFF7A1FF2268936843F4804308E0E3
:10240C00CB684A688968FFF797FF2268936843F0A6
:10241C0077039360B6E74D68CE68016A21F010012E
:10242C0001628269036A22F4704223F0A00343EA3A
:10243C00051342EA063282610362836823F070035B
:10244C0043F06703CBE74A68CE68016A056A21F05E
:10245C000A0125F00105056283690A4323F0F003A4
:10246C0043EA061383610262836823F0700343F02E
:10247C004703B4E710B50124036A01F01F018C4037
:10248C0023EA04030362036A8A401A43026210BD02
:10249C0038B5044690F83D000D46C0B202281146EE
:1024AC003ED094F83D20012A06D111B90BB1012080
:1024BC0038BD022284F83D200C2D1AD8DFE805F037
:1024CC000719191931191919431919195500606A85
:1024DC002F4A82622F4AC2622F4A02632268343228
:1024EC00FFF7B6F80028E2D12268D36843F40073F2
:1024FC00D360012220682946FFF7BCFF0020236827
:10250C00264A934202BF5A6C42F400425A649A68BB
:10251C0002F00702062A1EBF1A6842F001021A6076
:10252C0038BDA06A1A4A82621A4AC2621A4A026307
:10253C0022683832FFF78CF80028B8D12268D368AB
:10254C0043F48063D4E7E06A114A8262114AC262A2
:10255C00114A026322683C32FFF77AF80028A6D1B0
:10256C002268D36843F40063C2E7206B084A826296
:10257C00084AC262084A026322684032FFF768F8D0
:10258C00002894D12268D36843F48053B0E700BF8D
:10259C00C52000080321000841210008002C01403F
:1025AC0090F83C3030B5012B4FF0020314D0046886
:1025BC0080F83D306268A3680D68496822F07002AB
:1025CC0023F080030B432A436260A360012380F84D
:1025DC003D30002380F83C30184630BD0368DA6883
:1025EC0022F49072DA605A6922F001025A612023B7
:1025FC0080F83A307047000038B505460368C1686A
:10260C001A69192422F440520A431A61826800693B
:10261C00D9680243686921F4B05121F00C010243DE
:10262C000A43DA605A69A96922F440720A435A6172
:10263C000D4A934214D1FFF7A7FC60436C686422E7
:10264C00A400B0FBF4F0B0FBF2F402FB14031B018A
:10265C003233B3FBF2F3296803EB04138B6038BD00
:10266C00FFF782FCE9E700BF0038014010B50446D3
:10267C0040B390F8393003F0FF021BB980F83820D2
:10268C00FEF788FE2423226884F83930D36820466C
:10269C0023F40053D360FFF7AFFF236800201A69BF
:1026AC0022F490421A615A6922F02A025A61DA68BD
:1026BC0042F40052DA602023E06384F8393084F865
:1026CC003A3010BD012010BD90F83930202B18D1B4
:1026DC00A9B1A2B190F83830012B12D0C2848284F7
:1026EC000023212201620168C36380F83920CA6883
:1026FC0080F8383042F08002CA60184670470120DA
:10270C0070470220704790F83A30202B20D1E9B165
:10271C00E2B190F83830012B1AD0C28582850023A3
:10272C002222C36380F83A2002688162D16880F863
:10273C00383041F48071D1605169184641F0010183
:10274C005161D16841F02001D16070470120704780
:10275C0002207047704790F83A3010B5222B36D1D2
:10276C0083680169B3F5805F0268836A23D152687C
:10277C00E9B9C2F3080223F8022B8362C48D013C31
:10278C00A4B2C4858CB90368DA6822F02002DA603E
:10279C00DA6822F48072DA605A6922F001025A6116
:1027AC00202380F83A30FEF7FBFA002010BDD2B29D
:1027BC0023F8012BE1E721B9591C526881621A7088
:1027CC00DCE75268591C816202F07F02F7E70220B5
:1027DC0010BD7047036870B51A6804461607D968AF
:1027EC005D6907D196065AD58D0658D5BDE870405F
:1027FC00FFF7B1BF15F0010502D111F4907F4ED057
:10280C00D30705D5CE0542BFE36B43F00103E36369
:10281C00500704D51DB1E36B43F00203E363930748
:10282C0004D51DB1E36B43F00403E363160704D531
:10283C001DB1E36B43F00803E363E36B002B66D03D
:10284C00950604D5880602D52046FFF784FF236839
:10285C0020465D69E26B110702D415F040051AD0D1
:10286C00FFF7BCFE23685A69520610D55A69606B93
:10287C0022F040025A6150B1254B4363FEF726FF0C
:10288C00002844D0606BBDE87040436B184720466D
:10289C00FFF79FFF70BDFFF79CFFE56370BD160649
:1028AC0027D50D0625D594F83920212A2FD1A268D9
:1028BC00B2F5805F226A17D11188C1F30801596003
:1028CC00216979B902322262E28C013A92B2E28435
:1028DC00EAB9DA6822F08002DA60DA6842F0400283
:1028EC00DA6070BD0132EEE7511C216212785A6039
:1028FC00EAE750060BD54A0609D5DA68204622F0DD
:10290C004002DA60202384F83930FFF723FF70BDD2
:10291C002129000808B50023406AC385C384FFF74A
:10292C0058FF08BD002103E00B4B5B5843500431AA
:10293C000A480B4B42189A42F6D30A4A02E000238B
:10294C0042F8043B084B9A42F9D3FEF7D7FB00F050
:10295C0015F8FEF785FA7047FC32000800000020DD
:10296C007000002070000020B0020020FEE7000084
:10297C00014B1868704700BF0C00002070B5002593
:10298C000C4E0D4CA41BA410A54209D100F04EFC1A
:10299C0000250A4E0A4CA41BA410A54205D170BDFB
:1029AC0056F8253098470135EEE756F8253098470C
:1029BC000135F2E7F4320008F4320008F432000872
:1029CC00F832000803460244934200D1704703F8E2
:1029DC00011BF9E70EB44FF4027100B59CB0ADF8D1
:1029EC0014106FF00041049107914FF6FF711DAB6D
:1029FC0002900690084853F8042BADF816100068A6
:102A0C0002A9019300F066F80022029B1A701CB018
:102A1C005DF804EB03B070470C0000202DE9F04783
:102A2C008E6882469E420C469146984635D88A89D5
:102A3C0012F4906F31D00223256809696F1A656909
:102A4C0005EB450595FBF3F508F101033B449D426D
:102A5C0038BF1D46530531D5294600F047FB0646C5
:102A6C0050B90C23CAF80030A3894FF0FF3043F063
:102A7C004003A381BDE8F0873A46216900F0C4FA0F
:102A8C00A38923F4906343F08003A38126613E4421
:102A9C00266046466561ED1BA560464528BF464647
:102AAC0049463246206800F0BAFAA36800209B1B06
:102ABC00A36023681E442660BDE8F0872A4600F018
:102ACC0073FB06460028E1D12169504600F0C2FA9A
:102ADC00C7E700002DE9F04F9DB003938B8980462A
:102AEC001C060D4616460FD50B696BB9402100F03C
:102AFC00FDFA2860286128B90C23C8F800304FF083
:102B0C00FF30C4E040236B610023099320238DF830
:102B1C00293030234FF0010B8DF82A3037463C46D4
:102B2C0014F8013B002B3CD1B7EB060A0BD05346F3
:102B3C00324629464046FFF771FF013000F0A28073
:102B4C00099B534409933B78002B00F09B80002396
:102B5C004FF0FF3204930793059206938DF8533090
:102B6C001A9305222178504800F040FA671C049B08
:102B7C00D8B9D90644BF20228DF853201A0744BF78
:102B8C002B228DF8532022782A2A16D000210A20D5
:102B9C00079A27463B780134303B092B50D9C9B1F1
:102BAC0011E0252BC0D02746B9E73F4A3C46801A96
:102BBC000BFA00F018430490D3E7039A111D126826
:102BCC000391002A01DB079204E0524243F0020316
:102BDC00079204933B782E2B0DD17B78791C2A2BF2
:102BEC0032D1039B02371A1D1B680392002BB8BF0E
:102BFC004FF0FF3305932D4C03223978204600F01B
:102C0C00F5F938B14023001B03FA00F0049B01379F
:102C1C00034304933978062225487E1C8DF828102E
:102C2C0000F0E4F9002835D0224BFBB9039B0733A5
:102C3C0023F0070308330393099B4B4409936DE777
:102C4C0000FB02320121A4E700230A241846059355
:102C5C000F463A780131303A092A03D9002BCAD0F1
:102C6C000590C8E704FB00200123F1E703AB0093B8
:102C7C002A46114B04A94046AFF30080B0F1FF3F48
:102C8C008146D9D1AB895B063FF539AF09981DB0A8
:102C9C00BDE8F08F03AB00932A46074B04A94046CE
:102CAC0000F084F8EAE700BFBF320008C532000824
:102CBC00C932000800000000292A00082DE9F0475D
:102CCC0091461F468A680B6906469342B8BF134665
:102CDC00C9F8003091F843200C46DDF8208012B181
:102CEC000133C9F800302368990642BFD9F8003087
:102CFC000233C9F80030256815F0060507D104F138
:102D0C00190AE368D9F800209B1A9D422ADB94F833
:102D1C0043302268003318BF012392062FD404F1EC
:102D2C00430239463046C047013022D02368E5685B
:102D3C0003F00603042B18BF0025D9F800204FF030
:102D4C00000908BFAD1AA368226908BF25EAE5751A
:102D5C009342C4BF9B1AED181A344D451BD1002069
:102D6C00BDE8F0870123524639463046C047013052
:102D7C0003D14FF0FF30BDE8F0870135C1E73020BB
:102D8C00E11881F843005A1C94F845102244023390
:102D9C0082F84310C3E70123224639463046C04728
:102DAC000130E6D009F10109D7E700002DE9F04325
:102DBC0017460A7E85B06E2A984606460C460C9B32
:102DCC0001F1430E00F0BC801AD8632A2ED00AD829
:102DDC00002A00F0C880582A00F08A8004F14205CD
:102DEC0084F842202AE0642A01D0692AF6D12168AD
:102DFC001A6811F0800F23D0111D1960136827E099
:102E0C00732A00F0B48008D86F2A2AD0702AE5D132
:102E1C000A6842F020020A6003E0752A21D0782A61
:102E2C00DCD178226F4984F8452064E01A6801F1FE
:102E3C004205111D1960136884F842300123A3E088
:102E4C0011F0400F02F104011960D7D0B2F9003033
:102E5C00002B03DA2D225B4284F8432062490A22BC
:102E6C0017E02068196810F0800F03D0081D186057
:102E7C000B6806E010F0400F01F104001860F7D069
:102E8C000B886F2A14BF0A2208225749002084F8A5
:102E9C0043006568002DA560C0F29C80206820F07E
:102EAC0004002060002B3FD1002D40F0958075462A
:102EBC00082A0BD12368DA0708D5236962689A427D
:102ECC00DEBF302305F8013C05F1FF35AEEB050301
:102EDC002361CDF800803B4603AA21463046FFF71C
:102EEC00EDFE013055D14FF0FF3005B0BDE8F08359
:102EFC0081F845203C492268186812F0800F00F1D7
:102F0C0004051D6001D0036802E05506FBD503885B
:102F1C00D00744BF42F0200222601BB9226822F085
:102F2C00200222601022B1E77546B3FBF2F002FBDF
:102F3C001033CB5C05F8013D03460028F5D1B7E70B
:102F4C0008681A6810F0800F496904D0101D1860C9
:102F5C001368196007E010F0400F02F104001860CC
:102F6C001368F6D01980002375462361B1E71A68FF
:102F7C00111D1960156800216268284600F036F8AA
:102F8C0008B1401B606063682361002384F8433000
:102F9C009FE723692A4639463046C0470130A2D004
:102FAC0023689B0707D5002504F11909E368039AE8
:102FBC009B1A9D4205DBE068039B9842B8BF1846FC
:102FCC0093E701234A4639463046C04701308AD040
:102FDC000135EBE7002BA7D10B7804F1420584F8FF
:102FEC00423065E7E1320008D032000810B5C9B2B2
:102FFC0002449042034601D1002010BD1C780130E0
:10300C008C42F6D1184610BD10B5431E0A449142AD
:10301C0000D110BD11F8014B03F8014FF7E78842BE
:10302C0010B501EB020303D8421E99420CD110BD1E
:10303C009842F9D28118D21AD34200D110BD13F89C
:10304C00014D01F8014DF7E711F8014B02F8014F62
:10305C00EBE7000038B50546002943D051F8043C95
:10306C000C1F002BB8BFE41800F0D4F81E4A1368EC
:10307C00104633B9636014602846BDE8384000F050
:10308C00CAB8A3420BD921686218934201BF1A68CF
:10309C005B685218226063600460EDE713465A685F
:1030AC000AB1A242FAD919685818A0420BD120686B
:1030BC000144581882421960DED1106852680144EC
:1030CC0019605A60D8E702D90C232B60D4E720682A
:1030DC0021188A4201BF1168526809182160626088
:1030EC005C60C9E738BD00BFA800002070B5CD1CDE
:1030FC0025F0030508350C2D38BF0C25002D064690
:10310C0001DBA94203D90C233360002070BD00F011
:10311C0081F8234A1468214691B9224C23681BB9C3
:10312C00304600F067F820602946304600F062F81F
:10313C00431C26D10C233046336000F06CF8E4E7D6
:10314C000B685B1B1AD40B2B0FD90B60CC18CD5012
:10315C00304600F060F804F10B00231D20F007004E
:10316C00C31A1BD05A42E25070BD8C420BBF63682D
:10317C004B681360636018BF0C46E9E70C4649685E
:10318C00CAE7C41C24F00304A04205D0211A30461F
:10319C0000F030F80130CDD02560D9E770BD00BF0C
:1031AC00A8000020AC000020F8B5074614460E46D7
:1031BC0021B91146BDE8F840FFF798BF22B9FFF7D7
:1031CC0049FF25462846F8BD00F026F884420FD961
:1031DC0021463846FFF78AFF05460028F2D03146D3
:1031EC002246FFF711FF31463846FFF733FFE9E778
:1031FC003546E7E738B50023054C054608462360FD
:10320C00FDF762FF431C02D1236803B12B6038BD6C
:10321C00AC0200207047704751F8040C0028A0F154
:10322C000400BCBF0B58C01870470000F8B500BFB5
:10323C00F8BC08BC9E467047F8B500BFF8BC08BC8B
:04324C009E467047E3
:1032500002030405060708090A0B0C0D0E0F1010D7
:1032600054454D503A2025642E2564200A0D73657F
:1032700074543A2025642E2564200A0D4B703A20A0
:1032800025642E2564200A0D54693A2025642E25D4
:1032900064200A0D54643A2025642E2564200A0D0A
:1032A000200A0D200A0D00000000000000000001AF
:1032B00002030406070809000000000102030423BA
:1032C0002D302B2000686C4C006566674546470032
:1032D000303132333435363738394142434445464C
:1032E00000303132333435363738396162636465E2
:0432F0006600000074
:0432F400310100089C
:0432F8000D010008BC
:1032FC000024F40001000000100000001000002069
:10330C0000000000000000000000000000000000B1
:10331C0000000000000000000000000000000000A1
:10332C000000000000000000000000000000000091
:10333C000000000000000000000000000000000081
:10334C000000000000000000000000000000000071
:10335C000000000000000000000000000000000061
:040000050800293195
:00000001FF
