:020000040800F2
:100000000050002079240008910F0008930F000889
:10001000950F0008970F0008990F000800000000D6
:100020000000000000000000000000009B0F00081E
:100030009D0F0008000000009F0F0008A10F00089E
:10004000C1240008C1240008C1240008C1240008FC
:10005000C1240008C1240008C1240008C1240008EC
:10006000C1240008C1240008C1240008C1240008DC
:10007000C1240008C1240008C1240008C1240008CC
:10008000C1240008C1240008C1240008C1240008BC
:10009000C1240008C1240008C1240008C1240008AC
:1000A000C1240008C1240008C1240008C12400089C
:1000B000C1240008C1240008C1240008C12400088C
:1000C000C1240008C1240008C1240008C12400087C
:1000D000C1240008C1240008C1240008B10F000891
:1000E000BD0F0008C1240008C12400080000000062
:1000F0000000000000000000000000000000000000
:0C01000000000000000000005FF808F1A3
:10010C0010B5054C237833B9044B13B10448AFF345
:10011C0000800123237010BD90000020000000001F
:10012C00802D000808B5034B1BB103490348AFF3FE
:10013C00008008BD0000000094000020802D000805
:10014C0080F0004002E000BF81F0004142001FBF80
:10015C005FEA410392EA030F7FEA226C7FEA236C89
:10016C006AD04FEA1262D2EB1363C1BFD21841407E
:10017C0048404140B8BF5B42192B88BF704710F014
:10018C00004F40F4000020F07F4018BF404211F0B7
:10019C00004F41F4000121F07F4118BF494292EA1F
:1001AC00030F3FD0A2F1010241FA03FC10EB0C004B
:1001BC00C3F1200301FA03F100F0004302D54942D8
:1001CC0060EB4000B0F5000F13D3B0F1807F06D385
:1001DC0040084FEA310102F10102FE2A51D2B1F17D
:1001EC00004F40EBC25008BF20F0010040EA030072
:1001FC007047490040EB000010F4000FA2F101021F
:10020C00EDD1B0FA80FCACF1080CB2EB0C0200FAA8
:10021C000CF0AABF00EBC25052421843BCBFD040F6
:10022C001843704792F0000F81F4000106BF80F470
:10023C0000000132013BB5E74FEA41037FEA226C33
:10024C0018BF7FEA236C21D092EA030F04D092F0FE
:10025C00000F08BF0846704790EA010F1CBF002032
:10026C00704712F07F4F04D1400028BF40F000408F
:10027C00704712F100723CBF00F50000704700F0AF
:10028C00004343F0FE4040F4000070477FEA2262D6
:10029C0016BF08467FEA23630146420206BF5FEAA7
:1002AC00412390EA010F40F4800070474FF00003A7
:1002BC0004E000BF10F0004348BF40425FEA000C6E
:1002CC0008BF704743F0964301464FF000001CE016
:1002DC0050EA010208BF70474FF000030AE000BF6C
:1002EC0050EA010208BF704711F0004302D54042AA
:1002FC0061EB41015FEA010C02BF8446014600201C
:10030C0043F0B64308BFA3F18053A3F50003BCFA36
:10031C008CF2083AA3EBC25310DB01FA02FC6344E3
:10032C0000FA02FCC2F12002BCF1004F20FA02F2EA
:10033C0043EB020008BF20F00100704702F12002DD
:10034C0001FA02FCC2F1200250EA4C0021FA02F23E
:10035C0043EB020008BF20EADC7070474FF0FF0C43
:10036C001CEAD0521EBF1CEAD15392EA0C0F93EA3E
:10037C000C0F6FD01A4480EA010C400218BF5FEAE0
:10038C0041211ED04FF0006343EA501043EA511153
:10039C00A0FB01310CF00040B1F5000F3EBF49004D
:1003AC0041EAD3715B0040EA010062F17F02FD2A51
:1003BC001DD8B3F1004F40EBC25008BF20F0010034
:1003CC00704790F0000F0CF0004C08BF49024CEA4B
:1003DC00502040EA51207F3AC2BFD2F1FF0340EADD
:1003EC00C250704740F400004FF00003013A5DDC4E
:1003FC0012F1190FDCBF00F000407047C2F100028F
:10040C00410021FA02F1C2F1200200FA02FC5FEA7B
:10041C00310040F1000053EA4C0308BF20EADC70C5
:10042C00704792F0000F00F0004C02BF400010F437
:10043C00000F013AF9D040EA0C0093F0000F01F0E4
:10044C00004C02BF490011F4000F013BF9D041EA06
:10045C000C018FE70CEAD15392EA0C0F18BF93EA08
:10046C000C0F0AD030F0004C18BF31F0004CD8D132
:10047C0080EA010000F00040704790F0000F17BFB9
:10048C0090F0004F084691F0000F91F0004F14D0FF
:10049C0092EA0C0F01D142020FD193EA0C0F03D157
:1004AC004B0218BF084608D180EA010000F000405A
:1004BC0040F0FE4040F40000704740F0FE4040F435
:1004CC00400070474FF0FF0C1CEAD0521EBF1CEAD4
:1004DC00D15392EA0C0F93EA0C0F69D0A2EB0302F2
:1004EC0080EA010C49024FEA402037D04FF080538C
:1004FC0043EA111143EA10130CF000408B4238BF51
:10050C005B0042F17D024FF4000C8B4224BF5B1A5E
:10051C0040EA0C00B3EB510F24BFA3EB510340EAAC
:10052C005C00B3EB910F24BFA3EB910340EA9C005A
:10053C00B3EBD10F24BFA3EBD10340EADC001B01CA
:10054C0018BF5FEA1C1CE0D1FD2A3FF650AF8B426E
:10055C0040EBC25008BF20F0010070470CF0004C7B
:10056C004CEA50207F32C2BFD2F1FF0340EAC250A6
:10057C00704740F400004FF00003013A37E792F067
:10058C00000F00F0004C02BF400010F4000F013AC5
:10059C00F9D040EA0C0093F0000F01F0004C02BFC0
:1005AC00490011F4000F013BF9D041EA0C0195E729
:1005BC000CEAD15392EA0C0F08D142027FF47DAFC2
:1005CC0093EA0C0F7FF470AF084676E793EA0C0FB2
:1005DC0004D14B023FF44CAF08466EE730F0004CB0
:1005EC0018BF31F0004CCAD130F000427FF45CAF40
:1005FC0031F000437FF43CAF5FE700BF4FF0FF3CAE
:10060C0006E000BF4FF0010C02E000BF4FF0010C00
:10061C004DF804CD4FEA40024FEA41037FEA226CC9
:10062C0018BF7FEA236C11D001B052EA530C18BFEB
:10063C0090EA010F58BFB2EB030088BFC81738BF50
:10064C006FEAE17018BF40F0010070477FEA226C3E
:10065C0002D15FEA402C05D17FEA236CE4D15FEA3A
:10066C00412CE1D05DF8040B704700BF844608466E
:10067C006146FFE70FB5FFF7C9FF002848BF10F12F
:10068C00000F0FBD4DF808EDFFF7F4FF0CBF012074
:10069C0000205DF808FB00BF4DF808EDFFF7EAFFFE
:1006AC0034BF012000205DF808FB00BF4DF808EDB9
:1006BC00FFF7E0FF94BF012000205DF808FB00BFAE
:1006CC004DF808EDFFF7D2FF94BF012000205DF834
:1006DC0008FB00BF4DF808EDFFF7C8FF34BF012041
:1006EC0000205DF808FB00BF4FEA4002B2F1FE4F5C
:1006FC000FD34FF09E03B3EB12620DD94FEA0023D8
:10070C0043F0004310F0004F23FA02F018BF4042B0
:10071C0070474FF00000704712F1610F01D1420297
:10072C0005D110F0004008BF6FF0004070474FF04B
:10073C000000704742000ED2B2F1FE4F0BD34FF0C7
:10074C009E03B3EB126209D44FEA002343F000433B
:10075C0023FA02F070474FF00000704712F1610F5E
:10076C0001D1420202D14FF0FF3070474FF0000030
:10077C00704700BF2DE9F8430746894601461046ED
:10078C009846FFF7E1FC2F4906460898FFF79AFEBA
:10079C00394604464046FFF7D7FC0146074630462B
:1007AC00FFF7D2FC2146FFF78DFE394680463046D6
:1007BC00FFF7CCFC2146FFF7D1FD4946FFF7C6FCFD
:1007CC0021490A9D0446FFF77BFF00282DD11F49C4
:1007DC002046FFF761FF00B11C4C0B993046FFF728
:1007EC00BDFD0D9906464046FFF7B8FD0146304663
:1007FC00FFF7ACFC0C9906462046FFF7AFFD01460F
:10080C003046FFF7A3FC1249FFF7A0FCFFF792FF5D
:10081C0080B2C6280BD8452898BF0020099B1B68BE
:10082C003DB958632046BDE8F883074CD5E7C7208F
:10083C00F4E7042D01D19863F4E7082D0CBFD863BD
:10084C001864EFE700007A440000C8420000C8C2F8
:10085C00000082420022034B1B685A625A6A824291
:10086C00FCD370477801002030B504460D4685B0A6
:10087C0010220021684601F049FE69462046009589
:10088C0000F056FE05B030BD30B585B004460D46BF
:10089C0010220021684601F039FE01230193022346
:1008AC00694620460095039300F042FE05B030BD2A
:1008BC0010B508211D48FFF7E7FF012208211B484E
:1008CC0000F01EFF4FF4FA7000F06EFD00220821BC
:1008DC00164800F015FF44F25060FFF7BBFF0122F1
:1008EC000821124800F00CFF1420FFF7B3FF002280
:1008FC0008210E4800F004FF08210C48FFF7B4FF54
:10090C0008210A4800F0F6FE70B95020FFF7A2FF4C
:10091C000821064800F0EEFE041C18BF01245020EC
:10092C00FFF798FF204610BD0024F8E700100140A7
:10093C002DE9F041054607240026294F08213846A9
:10094C0000F0D8FE0028F9D02820FFF783FF0821FB
:10095C00384600F0CFFE0123A34078BB26EA0306FD
:10096C0014F1FF34EAD24FF0070800241C4F082181
:10097C00384600F0BFFE0028F9D02820FFF76AFFA8
:10098C000821384600F0B6FE012303FA08F3F0B94B
:10099C0024EA030418F1FF38E9D22046FFF786FC5D
:1009AC001049FFF78FFD04463046FFF77FFC0146E8
:1009BC002046FFF7CBFB2860BDE8F0813343DEB265
:1009CC000821384600F096FE0028F9D1C8E71C43F0
:1009DC00E4B20821384600F08DFE0028F9D1D9E7A1
:1009EC000010014000002041FFF7A2BFF8B50746F8
:1009FC0007250024104E0821304600F07BFE00280D
:100A0C00F9D02820FFF726FF0821304600F072FEAF
:100A1C000123AB4030B924EA030415F1FF35EAD2C7
:100A2C003C70F8BD1C43E4B20821304600F062FE75
:100A3C000028F9D1F1E700BF001001401022F0B5F9
:100A4C0089B00DEB0200002101F060FD394B3A4EEC
:100A5C009A69304642F010029A619A69602102F05C
:100A6C0010020092009A9A69002442F020029A61C6
:100A7C009A69324F02F020020192019A9A69032579
:100A8C0042F004029A619A6902F004020292029AFC
:100A9C009A6942F008029A619B69002203F00803EC
:100AAC000393039B00F02CFE4FF400530493244B50
:100ABC0004A938460593069400F03AFD41F6F77305
:100ACC0004A938460493059500F032FD082304A9C7
:100ADC00384604930594069400F02AFD49F6927367
:100AEC0004A930460493059500F022FD602304937D
:100AFC0001230593022304A930460793069400F0C2
:100B0C0017FD4FF2F73304A90E480493059500F036
:100B1C000FFD042304A90C480493059500F008FD6F
:100B2C0022462146282000F063FC282000F094FC8B
:100B3C0009B0F0BD00100240000801400010014057
:100B4C0000001110000C01400014014010B590B0D1
:100B5C002822002106A801F0D9FC1422002101A8AA
:100B6C0001F0D4FC01230A93102302240B934FF4BD
:100B7C00601306A80F9306940D9400F0D3FD0F2379
:100B8C004FF4806201930023214601A80294039341
:100B9C000492059300F0A0FF10B010BD10B50C4CE2
:100BAC004FF07E512068FFF7D1FA2060094C238862
:100BBC0001339BB2B3F57A7F238007D3064B0749E9
:100BCC001A88074801F024FB0023238010BD00BFC6
:100BDC00D0000020CA000020CE000020E100002040
:100BEC00F801002038B5314B1878FFF75FFB30491E
:100BFC00FFF768FC2F4B04461878FFF757FB0146AC
:100C0C002046FFF7A3FA2C4B18602C4B1878FFF7F3
:100C1C004DFB2749FFF756FC294B04461878FFF784
:100C2C0045FB01462046FFF791FA264B1860264BF0
:100C3C001878FFF73BFB1E49FFF744FC234B044697
:100C4C001878FFF733FB01462046FFF77FFA204B5D
:100C5C001860204B1878FFF729FB1549FFF732FC79
:100C6C001D4B04461878FFF721FB01462046FFF781
:100C7C006DFA1A4B18601A4B1D682846FFF734FDA5
:100C8C00184B0B49187004462846FFF767FB0546BE
:100C9C006420E4B26043FFF70DFB01462846FFF7E2
:100CAC0053FAFFF721FD104B187038BDCC00002013
:100CBC000000C8421C00002018000020B0000020DA
:100CCC000400002000000020C000002014000020C0
:100CDC0010000020BA0000200C00002008000020AA
:100CEC00BC000020B9000020B800002080B588B0FE
:100CFC0000F036FBFFF72AFFFFF7A0FE00F09CF98F
:100D0C0000F068FA00F016FA00F080FA334801F0AF
:100D1C0015F80021324801F0CBF9324F0122402165
:100D2C00314800F0EDFC01223049314801F08FFAD6
:100D3C00B9464FF000082F4C23683B60FFF752FF79
:100D4C00FFF7B6FD2C4B0128187008D12B48FFF784
:100D5C004BFE2046FFF7ECFD2948FFF747FE294BD9
:100D6C00294D1B68294E0593294B2A481B6822687C
:100D7C000493294B31681B68039300230293184B8F
:100D8C0001932B680093D9F800300068FFF7F2FC50
:100D9C002249234B0978234A1B7812780791224960
:100DAC0030600978214806912149C5F800800978FE
:100DBC0005912049097804911F49097803911F492D
:100DCC00097802911E49097801911E490978009110
:100DDC001D4901F0A3FB1D4B1880ACE778010020E6
:100DEC00B8010020C400002000080140E0000020F1
:100DFC00F8010020BC000020C8000020B400002036
:100E0C00C100002008000020D0000020AC00002011
:100E1C00100000201800002000000020BA00002064
:100E2C00B8000020B90000200C000020E1000020D8
:100E3C00C000002014000020B0000020040000209E
:100E4C00CC0000201C000020A82D0008CE000020A3
:100E5C00304B1B78542B21D00DD8492B41D04B2B28
:100E6C002FD0442B0CD12C4A1378592B1AD9002390
:100E7C0013702A4A1CE0692B3BD006D8642B40D057
:100E8C0001222449264801F0E2B96B2B21D0742BA6
:100E9C00F6D1244A137873B10A3B04E0214A137843
:100EAC00592B02D80A331370EAE7002313701E4A39
:100EBC0013780133F7E75A2313701B4A1378013B5D
:100ECC00F1E71A4A1378592BECD900231370184AFE
:100EDC00EEE7164A1378002BDED15A231370144A0E
:100EEC00ECE7144A1378592BDCD900231370124AFF
:100EFC00DEE7104A1378002BCED15A2313700E4A1A
:100F0C00DCE7054A1378002BC6D15A231370034A29
:100F1C00D4E700BFE0000020BA0000200C00002045
:100F2C00F8010020CC0000201C000020B0000020A4
:100F3C0004000020C00000201400002070470000B6
:100F4C000E4B82B09A6942F001029A619A6902F0E2
:100F5C0001020092009ADA6942F08052DA61DB6990
:100F6C00074A03F080530193019B536823F0E0631D
:100F7C0043F00073536002B0704700BF0010024092
:100F8C00000001407047FEE7FEE7FEE7FEE7704712
:100F9C007047704708B5FFF701FEBDE8084000F048
:100FAC00F1B90000014801F0B9B900BFF801002007
:100FBC004FF4005000F0AABB08B50A4B0246196862
:100FCC0009B9094919606946186802448A4206D968
:100FDC0001F072FA0C2303604FF0FF3008BD1A6069
:100FEC0008BD00BFD4000020800200200F4B1A68FF
:100FFC0042F001021A6059680D4A0A405A601A6898
:10100C0022F0847222F480321A601A6822F4802250
:10101C001A605A6822F4FE025A604FF41F029A605A
:10102C004FF00062034B9A60704700BF0010024003
:10103C000000FFF800ED00E07FB51022002102A8AF
:10104C0001F064FA3F2215481549002380E8060098
:10105C0044F61F62009301938360C2600361436195
:10106C00836100F0B7FE08B1FFF768FF4FF48053BF
:10107C0002A90A48029300F079FF08B1FFF75EFF5E
:10108C000023694605480093019301F02DF808B13F
:10109C00FFF754FF07B05DF804FB00BF7801002098
:1010AC00002C014003680F4A82B093420BD10E4BC7
:1010BC009A6942F400629A619B6903F4006300939D
:1010CC00009B02B07047B3F1804FFAD103F50433A3
:1010DC00DA6942F00102DA61DB6903F00103019382
:1010EC00019BEEE7002C01400010024010B50446B5
:1010FC0086B01022002102A801F008FA2368B3F18F
:10110C00804F13D103F504339A6902A942F004020B
:10111C009A619B69064803F004030193019B012328
:10112C00029302230393059300F002FA06B010BD5C
:10113C000008014010B58EB01022002103A801F068
:10114C00E5F900241C2221460DEB020001940294C7
:10115C0001F0DCF94FF416734FF080421C4880E824
:10116C000C00C8238460C3600461846100F032FE0B
:10117C0008B1FFF7E3FE4FF4805303A9144803931F
:10118C0000F0F4FE08B1FFF7D9FE114800F03CFE68
:10119C0008B1FFF7D3FE002401A90D480194029475
:1011AC0000F0A2FF08B1FFF7C9FE6023002207A9D7
:1011BC0007480793089409940B9400F06BFE08B150
:1011CC00FFF7BCFE0248FFF791FF0EB010BD00BF49
:1011DC00B801002008B54FF4E13E0A480A4B0C2236
:1011EC0080E80840002342618360C360036183612F
:1011FC00C36100F0DFFF18B1BDE80840FFF79EBEE9
:10120C0008BD00BF380200200044004008B54FF470
:10121C00165E0A480A4B0C2280E808400023426103
:10122C008360C36003618361C36100F0C3FF18B1C5
:10123C00BDE80840FFF782BE08BD00BFF8010020E2
:10124C0000480040102210B5044688B00DEB020097
:10125C00002101F05BF923682A4A93421DD12A4BE5
:10126C0004A9DA69294842F40032DA61DA6902F435
:10127C0000320092009A9A6942F004029A619B69CA
:10128C0003F004030193019B0C23049302230593A5
:10129C00079300F04DF908B010BD1D4A9342FAD1E6
:1012AC00194B04A9DA691B4842F48022DA61DA6925
:1012BC00002402F480220292029A9A6942F00802F7
:1012CC009A619B6903F008030393039B4FF48063BB
:1012DC000493022305930323079300F029F94FF499
:1012EC00006304A90B4804930594069400F020F9BC
:1012FC0022462146272000F07BF8272000F0ACF88E
:10130C00C9E700BF00440040001002400008014043
:10131C0000480040000C014038B50E4B05461878CB
:10132C004FF47A73B3FBF0F30B4A1068B0FBF3F095
:10133C0000F0A0F8044658B90F2D09D802462946EA
:10134C004FF0FF3000F054F8044B20461D6038BDC0
:10135C00012038BD2400002020000020280000209F
:10136C00074A08B51368032043F01003136000F01C
:10137C002DF80020FFF7D0FFFFF7E2FD002008BD9D
:10138C0000200240034A044B11681B780B44136085
:10139C00704700BF7802002024000020014B186821
:1013AC00704700BF7802002038B50446FFF7F6FFFF
:1013BC000546631C1EBF044B1B78E418FFF7EEFFB9
:1013CC00401B8442FAD838BD24000020074A000292
:1013DC00D36800F4E06023F4E0631B041B0C43F0BF
:1013EC00BF6343F400330343D360704700ED00E068
:1013FC00174B30B5DC68C4F30224C4F10703251D78
:10140C00042B28BF0423062D4FF0010598BF0024A0
:10141C0005FA03F303F1FF3388BF033C1940A140E5
:10142C0005FA04F4013C2240002842EA01024FEA8A
:10143C000212A9BF00F16040064BD2B200F5614028
:10144C00BBBF00F00F00D2B280F800231A5430BD9D
:10145C0000ED00E014ED00E0002808DB0123420958
:10146C0000F01F0003FA00F0014B43F82200704714
:10147C0000E100E00138B0F1807F0AD2F021064B88
:10148C00064A586082F823100020072298601A60E0
:10149C0070470120704700BF10E000E000ED00E055
:1014AC0090F8213010B5022B03D004238363012064
:1014BC0010BD03681A6822F00E021A601A6822F036
:1014CC0001021A60184A93421FD0143293421ED064
:1014DC00143293421DD0143293421DD014329342D5
:1014EC001DD0143293420CBF4FF480134FF0807315
:1014FC000E4A00245360012380F82130436B80F89E
:10150C0020407BB19847204610BD0123F0E7102303
:10151C00EEE74FF48073EBE74FF48053E8E74FF4BA
:10152C008033E5E7184610BD080002400000024079
:10153C002DE9F74F00242646664BDFF8A8E1DFF8CB
:10154C00A8C10A6832FA06F502D103B0BDE8F08FE3
:10155C004FF0010808FA06F802EA080290457FD11C
:10156C004D68122D00F0AA8000F28380022D00F04D
:10157C00A28077D8002D00F08980012D00F0998091
:10158C004FF00F09FF2A93BF824606F18045083DB4
:10159C00D0F800B092BFB500D0F804B0AD0009FA95
:1015AC0005F82BEA080804FA05F588BF00F1040ACF
:1015BC0048EA0505CAF80050D1F804A01AF0805F7B
:1015CC004ED0454D444FAD6926F0030845F001055A
:1015DC00BD61BD6908F1804805F00105019508F56C
:1015EC00803806F0030B019D4FEA8B0BD8F808509E
:1015FC0009FA0BF925EA0909384DA84263D005F51B
:10160C008065A84261D005F58065A8425FD005F5DC
:10161C008065A8420CBF0325042505FA0BF545EAA5
:10162C000905C8F808501D681AF4803F14BF15430B
:10163C0095431D605D681AF4003F14BF1543954334
:10164C005D609D681AF4801F14BF154395439D601F
:10165C00DD681AF4001F14BF2A4325EA0202DA607F
:10166C0001366EE7032D22D0112D89D1CC680434BC
:10167C0086E71B4FBD4209D012D8DFF870904D455C
:10168C0004D009F580394D457FF47AAF8C68C4B12C
:10169C00012C0CBFC0F81080C0F8148008246FE730
:1016AC007545F3D06545F1D0DFF84490EBE70024A5
:1016BC0066E7CC6864E7CC68083461E7CC680C3426
:1016CC005EE704245CE70025A7E70125A5E70225D2
:1016DC00A3E700BF000401400010024000080140D5
:1016EC000000211000003110000032100000111019
:1016FC00000022108368194214BF0120002070479B
:10170C000AB1016170470904FBE7704708B5044B47
:10171C005969014202D05861FFF7F7FF08BD00BFBD
:10172C00000401402DE9F341054608B901203CE0D5
:10173C000368DB0710D42B689F075DD42B6819074F
:10174C0000F194802B685A0700F1BE80E8690028EC
:10175C0040F02C81002028E08F4C636803F00C03D0
:10176C00042B07D0636803F00C03082B09D16368C2
:10177C00DE0306D523689C03DDD56B68002BDAD11C
:10178C00D4E76B68B3F5803F12D1236843F4803300
:10179C002360FFF703FE064623689803CBD4FFF7BC
:1017AC00FDFD801B6428F7D9032002B0BDE8F08151
:1017BC009BB9236823F480332360236823F48023AC
:1017CC002360FFF7EBFD064623689903B3D5FFF7BB
:1017DC00E5FD801B6428F7D9E6E7B3F5A02F236855
:1017EC0003D143F480232360CFE723F480332360B9
:1017FC00236823F48023CBE7674C636813F00C0F4A
:10180C0007D0636803F00C03082B10D16368DA036C
:10181C000DD423689B0702D52B69012B86D1236835
:10182C006A6923F0F80343EAC203236086E72A6956
:10183C005A4B6AB101221A60FFF7B0FD06462368C5
:10184C009F07ECD4FFF7AAFD801B0228F7D9ABE762
:10185C001A60FFF7A3FD0646236898077FF56EAF65
:10186C00FFF79CFD801B0228F6D99DE7AA694A4C1C
:10187C004B4BDAB101221A60FFF790FD0646636A02
:10188C009B070DD54FF4FA52464B1B68B3FBF2F392
:10189C00019300BF019B5A1E0192002BF9D151E715
:1018AC00FFF77CFD801B0228E9D97DE71A60FFF762
:1018BC0075FD0646636A9F077FF544AFFFF76EFD23
:1018CC00801B0228F6D96FE7334CE369D80024D487
:1018DC000127E36943F08053E361E36903F080532C
:1018EC000093009B304E3368D90518D5EB68012B5B
:1018FC0026D1236A43F001032362FFF74FFD41F227
:10190C0088368046236A9B073FD5002F3FF41EAFD5
:10191C00E36923F08053E36118E70027E2E73368BB
:10192C0043F480733360FFF739FD80463368DA0582
:10193C00DCD4FFF733FDA0EB08006428F6D933E7BD
:10194C00ABB9236A41F2883823F001032362236A7E
:10195C0023F004032362FFF721FD0646236A980750
:10196C00D3D5FFF71BFD801B4045F7D91CE7052B92
:10197C00236A03D143F004032362BAE723F0010383
:10198C002362236A23F00403B6E7FFF707FDA0EBFD
:10199C000800B042B6D907E70010024000004242EE
:1019AC008004424220000020007000402A4B5A68FC
:1019BC001C4602F00C02082A3DD00023274E0228B8
:1019CC0033602BD1FFF7EAFC0746236899011FD43B
:1019DC002B6AB3F5803F05D16268A96822F4003206
:1019EC000A436260696A62680B4322F474121343FF
:1019FC00636001233360FFF7D1FC054623689A012D
:101A0C003FF5A8AEFFF7CAFC401B0228F6D9CBE67F
:101A1C00FFF7C4FCC01B0228D7D9C5E6FFF7BEFCF4
:101A2C00054623689B017FF595AEFFF7B7FC401B7D
:101A3C000228F6D9B8E601283FF4B7AE58682B6AED
:101A4C0000F480329A427FF471AE6B6A00F470102D
:101A5C00C01A18BF0120A8E60010024060004242E4
:101A6C0030B5194B87B002AC03F11005224618684B
:101A7C005968083303C2AB421446F7D101238DF8E1
:101A8C000430022311498DF805304B6803F00C0229
:101A9C00082A17D1C3F3834206A80244DB0312F8C9
:101AAC00102C0CD54B680A48C3F34043504306AA8C
:101ABC00134413F8143CB0FBF3F007B030BD0548E9
:101ACC005043FAE70248F8E7982D0008001002404E
:101ADC0000127A0000093D002DE9F0410D46044644
:101AEC0010B90120BDE8F081454A136803F00703E3
:101AFC008B4229D321688E0731D4CA0744D4404A7B
:101B0C00136803F007039D4267D322683D4D12F022
:101B1C00040F6ED1130706D56B68226923F460534A
:101B2C0043EAC2036B60FFF79BFF6B68364AC3F353
:101B3C000313D35CD840354B1860354B1868FFF74E
:101B4C00EBFB0020BDE8F081136823F007030B4387
:101B5C001360136803F007039942C2D1CAE7294BFB
:101B6C0011F0040F1EBF5A6842F4E0625A60080775
:101B7C0042BF5A6842F460525A605A68A06822F018
:101B8C00F00202435A60B8E762681E4E012A3368BD
:101B9C001BD113F4003FA4D0736841F2883823F0B2
:101BAC00030313437360FFF7F9FB0746736862681E
:101BBC0003F00C03B3EB820FA1D0FFF7EFFBC01BBC
:101BCC004045F3D90320BDE8F081022A02D113F07D
:101BDC00007FE0E713F0020FDDE7136823F0070343
:101BEC002B431360136803F007039D427FF479AF16
:101BFC008BE76B68E16823F4E0630B436B6089E768
:101C0C000020024000100240EF2D000820000020B0
:101C1C0028000020044B054A5B68C3F30223D35C05
:101C2C00034A1068D840704700100240FF2D00088E
:101C3C0020000020044B054A5B68C3F3C223D35C2D
:101C4C00034A1068D840704700100240FF2D00086E
:101C5C0020000020036A70B523F001030362036ABD
:101C6C00446882690D6822F073022A438D6823F060
:101C7C0002032B430A4DA8420BD1CD6823F0080375
:101C8C002B438E694D6924F44074354323F00403CF
:101C9C002C43446082614A684263036270BD00BF9A
:101CAC00002C0140036A70B523F480730362036A4D
:101CBC004468C2690D6822F073022A438D6823F4CC
:101CCC00007343EA05230B4DA8420DD1CD6823F4D4
:101CDC00006343EA05238E694D6924F4405435436F
:101CEC0023F4806344EA05144460C2614A68C26309
:101CFC00036270BD002C0140036A30B523F480539D
:101D0C000362036A4468C2690D6822F4E64242EA3F
:101D1C0005228D6823F4005343EA0533064DA8428F
:101D2C0002BF4D6924F4804444EA85144460C261C6
:101D3C004A680264036230BD002C0140022380F823
:101D4C003D3003689A6802F00702062A1EBF1A6823
:101D5C0042F001021A60012380F83D3000207047E8
:101D6C00704700001A4A036890420AD0B0F1804FC5
:101D7C0007D0A2F59432904203D002F580629042D3
:101D8C0015D14A6823F070031343114A90420AD0CC
:101D9C00B0F1804F07D0A2F59432904203D002F5F7
:101DAC008062904203D1CA6823F4407313434A699A
:101DBC0023F08003134303608B68C3620B68836258
:101DCC00034B984204BF0B690363012343617047C3
:101DDC00002C014010B50446A0B190F83D3003F042
:101DEC00FF021BB980F83C20FFF75CF90223206846
:101DFC0084F83D30211DFFF7B5FF0123002084F846
:101E0C003D3010BD012010BD10B50446A0B190F8B6
:101E1C003D3003F0FF021BB980F83C20FFF7A0FF18
:101E2C000223206884F83D30211DFFF79BFF01231E
:101E3C00002084F83D3010BD012010BD036A70B540
:101E4C0023F010030362036A446882690D6822F46C
:101E5C00E64242EA05228D6823F0200343EA05138B
:101E6C000B4DA8420DD1CD6823F0800343EA051336
:101E7C008E694D6924F44064354323F0400344EAF1
:101E8C008504446082614A688263036270BD00BF4E
:101E9C00002C014038B590F83C300446012B4FF033
:101EAC00020025D0012384F83D0084F83C300C2A34
:101EBC0018D8DFE802F0071717171E1717172F1778
:101ECC00171740002068FFF7C5FE236809699A6957
:101EDC0042F008029A619A6922F004029A619A69A6
:101EEC000A439A610123002084F83D3084F83C00B9
:101EFC0038BD2068FFF7A2FF236809699A6942F48C
:101F0C0000629A619A6922F480629A619A6942EA43
:101F1C000122E6E72068FFF7C5FE23680969DA6944
:101F2C0042F00802DA61DA6922F00402DA61DA6955
:101F3C000A43DA61D6E72068FFF7DEFE23680969F9
:101F4C00DA6942F40062DA61DA6922F48062DA61F9
:101F5C00DA6942EA0122ECE710B584680A4324F4FA
:101F6C007F4442EA03232343836010BD90F83C3046
:101F7C0070B5012B04464FF0020019D0012384F8F0
:101F8C003D00206884F83C30836823F47F4323F0C1
:101F9C00770383600B68402B65D015D8102B0CD0C1
:101FAC0007D853B10123002084F83D3084F83C005D
:101FBC0070BD202B01D0302BF4D1826843F0070385
:101FCC0022F0700213431AE0602B34D019D8502B36
:101FDC00E8D14A68CE68016A056A21F00A0125F049
:101FEC000105056283690A4323F0F00343EA0613F3
:101FFC0083610262836823F0700343F057038360AC
:10200C00D0E7702B0CD0B3F5005FCBD1CB684A680E
:10201C008968FFF7A1FF2268936843F4804308E0C6
:10202C00CB684A688968FFF797FF2268936843F08A
:10203C0077039360B6E74D68CE68016A21F0100112
:10204C0001628269036A22F4704223F0A00343EA1E
:10205C00051342EA063282610362836823F070033F
:10206C0043F06703CBE74A68CE68016A056A21F042
:10207C000A0125F00105056283690A4323F0F00388
:10208C0043EA061383610262836823F0700343F012
:10209C004703B4E710B50124036A01F01F018C401B
:1020AC0023EA04030362036A8A401A43026210BDE6
:1020BC0010B5044601220068FFF7ECFF2368094ABB
:1020CC000020934202BF5A6C42F400425A649A6850
:1020DC0002F00702062A1EBF1A6842F001021A60BB
:1020EC0010BD00BF002C014090F83C3030B5012BE6
:1020FC004FF0020314D0046880F83D306268A36886
:10210C000D68496822F0700223F080030B432A43C8
:10211C006260A360012380F83D30002380F83C30DE
:10212C00184630BD0368DA6822F49072DA605A6996
:10213C0022F001025A61202380F83A3070470000E7
:10214C0038B505460368C1681A69192422F440524F
:10215C000A431A6182680069D9680243686921F4EC
:10216C00B05121F00C0102430A43DA605A69A969A3
:10217C0022F440720A435A610D4A934214D1FFF77C
:10218C0059FD60436C686422A400B0FBF4F0B0FB12
:10219C00F2F402FB14031B013233B3FBF2F3296894
:1021AC0003EB04138B6038BDFFF734FDE9E700BF88
:1021BC000038014010B5044640B390F8393003F0B4
:1021CC00FF021BB980F83820FFF73CF82423226863
:1021DC0084F83930D368204623F40053D360FFF7DA
:1021EC00AFFF236800201A6922F490421A615A69E1
:1021FC0022F02A025A61DA6842F40052DA60202393
:10220C00E06384F8393084F83A3010BD012010BDF9
:10221C0090F83930202B18D1A9B1A2B190F83830F0
:10222C00012B12D0C2848284002321220162016816
:10223C00C36380F83920CA6880F8383042F08002D5
:10224C00CA6018467047012070470220704790F80A
:10225C003A30202B20D1E9B1E2B190F83830012B83
:10226C001AD0C285828500232222C36380F83A20CB
:10227C0002688162D16880F8383041F48071D16095
:10228C005169184641F001015161D16841F02001BA
:10229C00D16070470120704702207047704790F85A
:1022AC003A3010B5222B36D183680169B3F5805FC3
:1022BC000268836A23D15268E9B9C2F3080223F891
:1022CC00022B8362C48D013CA4B2C4858CB9036813
:1022DC00DA6822F02002DA60DA6822F48072DA60BE
:1022EC005A6922F001025A61202380F83A30FEF735
:1022FC00AFFD002010BDD2B223F8012BE1E721B9CC
:10230C00591C526881621A70DCE75268591C816250
:10231C0002F07F02F7E7022010BD7047036870B52A
:10232C001A6804461607D9685D6907D196065AD50E
:10233C008D0658D5BDE87040FFF7B1BF15F001050B
:10234C0002D111F4907F4ED0D30705D5CE0542BFF4
:10235C00E36B43F00103E363500704D51DB1E36B5A
:10236C0043F00203E363930704D51DB1E36B43F021
:10237C000403E363160704D51DB1E36B43F00803B4
:10238C00E363E36B002B66D0950604D5880602D573
:10239C002046FFF784FF236820465D69E26B110736
:1023AC0002D415F040051AD0FFF7BCFE23685A6919
:1023BC00520610D55A69606B22F040025A6150B136
:1023CC00254B4363FFF76CF8002844D0606BBDE8E5
:1023DC007040436B18472046FFF79FFF70BDFFF717
:1023EC009CFFE56370BD160627D50D0625D594F820
:1023FC003920212A2FD1A268B2F5805F226A17D129
:10240C001188C1F308015960216979B9023222623D
:10241C00E28C013A92B2E284EAB9DA6822F08002E4
:10242C00DA60DA6842F04002DA6070BD0132EEE741
:10243C00511C216212785A60EAE750060BD54A0605
:10244C0009D5DA68204622F04002DA60202384F8AD
:10245C003930FFF723FF70BD6924000808B500234D
:10246C00406AC385C384FFF758FF08BD002103E011
:10247C000B4B5B58435004310A480B4B42189A42A1
:10248C00F6D30A4A02E0002342F8043B084B9A4276
:10249C00F9D3FEF7ABFD00F015F8FEF727FC7047FB
:1024AC00442E000800000020900000209000002026
:1024BC0080020020FEE70000014B1868704700BF47
:1024CC002C00002070B500250C4E0D4CA41BA41044
:1024DC00A54209D100F04EFC00250A4E0A4CA41B63
:1024EC00A410A54205D170BD56F82530984701358A
:1024FC00EEE756F8253098470135F2E73C2E0008F8
:10250C003C2E00083C2E0008402E000803460244D6
:10251C00934200D1704703F8011BF9E70EB44FF456
:10252C00027100B59CB0ADF814106FF0004104912D
:10253C0007914FF6FF711DAB02900690084853F8B7
:10254C00042BADF81610006802A9019300F066F890
:10255C000022029B1A701CB05DF804EB03B07047AC
:10256C002C0000202DE9F0478E6882469E420C46D6
:10257C009146984635D88A8912F4906F31D002234F
:10258C00256809696F1A656905EB450595FBF3F537
:10259C0008F101033B449D4238BF1D46530531D51C
:1025AC00294600F047FB064650B90C23CAF8003008
:1025BC00A3894FF0FF3043F04003A381BDE8F087BF
:1025CC003A46216900F0C4FAA38923F4906343F0DE
:1025DC008003A38126613E44266046466561ED1B5F
:1025EC00A560464528BF464649463246206800F05D
:1025FC00BAFAA36800209B1BA36023681E442660C4
:10260C00BDE8F0872A4600F073FB06460028E1D1AE
:10261C002169504600F0C2FAC7E700002DE9F04FDF
:10262C009DB003938B8980461C060D4616460FD52C
:10263C000B696BB9402100F0FDFA2860286128B9BC
:10264C000C23C8F800304FF0FF30C4E040236B611E
:10265C000023099320238DF8293030234FF0010BF0
:10266C008DF82A3037463C4614F8013B002B3CD100
:10267C00B7EB060A0BD05346324629464046FFF7C5
:10268C0071FF013000F0A280099B534409933B7801
:10269C00002B00F09B8000234FF0FF320493079334
:1026AC00059206938DF853301A93052221785048E1
:1026BC0000F040FA671C049BD8B9D90644BF20220D
:1026CC008DF853201A0744BF2B228DF85320227803
:1026DC002A2A16D000210A20079A27463B78013473
:1026EC00303B092B50D9C9B111E0252BC0D027465E
:1026FC00B9E73F4A3C46801A0BFA00F018430490A5
:10270C00D3E7039A111D12680391002A01DB07928B
:10271C0004E0524243F00203079204933B782E2BC1
:10272C000DD17B78791C2A2B32D1039B02371A1DD1
:10273C001B680392002BB8BF4FF0FF3305932D4C51
:10274C0003223978204600F0F5F938B14023001BFC
:10275C0003FA00F0049B01370343049339780622F3
:10276C0025487E1C8DF8281000F0E4F9002835D09F
:10277C00224BFBB9039B073323F007030833039366
:10278C00099B4B4409936DE700FB02320121A4E73E
:10279C0000230A24184605930F463A780131303A43
:1027AC00092A03D9002BCAD00590C8E704FB0020E6
:1027BC000123F1E703AB00932A46114B04A94046D1
:1027CC00AFF30080B0F1FF3F8146D9D1AB895B06F6
:1027DC003FF539AF09981DB0BDE8F08F03AB0093FE
:1027EC002A46074B04A9404600F084F8EAE700BFEC
:1027FC00072E00080D2E0008112E00080000000006
:10280C00712500082DE9F04791461F468A680B692F
:10281C0006469342B8BF1346C9F8003091F84320DE
:10282C000C46DDF8208012B10133C9F80030236862
:10283C00990642BFD9F800300233C9F80030256838
:10284C0015F0060507D104F1190AE368D9F8002040
:10285C009B1A9D422ADB94F843302268003318BF40
:10286C00012392062FD404F1430239463046C04767
:10287C00013022D02368E56803F00603042B18BF4F
:10288C000025D9F800204FF0000908BFAD1AA36845
:10289C00226908BF25EAE5759342C4BF9B1AED185F
:1028AC001A344D451BD10020BDE8F0870123524658
:1028BC0039463046C047013003D14FF0FF30BDE8F8
:1028CC00F0870135C1E73020E11881F843005A1C2C
:1028DC0094F845102244023382F84310C3E70123D5
:1028EC00224639463046C0470130E6D009F101098D
:1028FC00D7E700002DE9F04317460A7E85B06E2A13
:10290C00984606460C460C9B01F1430E00F0BC8029
:10291C001AD8632A2ED00AD8002A00F0C880582A68
:10292C0000F08A8004F1420584F842202AE0642AEF
:10293C0001D0692AF6D121681A6811F0800F23D0D2
:10294C00111D1960136827E0732A00F0B48008D8B1
:10295C006F2A2AD0702AE5D10A6842F020020A6058
:10296C0003E0752A21D0782ADCD178226F4984F8CB
:10297C00452064E01A6801F14205111D19601368C5
:10298C0084F842300123A3E011F0400F02F104015E
:10299C001960D7D0B2F90030002B03DA2D225B423C
:1029AC0084F8432062490A2217E02068196810F065
:1029BC00800F03D0081D18600B6806E010F0400F64
:1029CC0001F104001860F7D00B886F2A14BF0A229B
:1029DC0008225749002084F843006568002DA56043
:1029EC00C0F29C80206820F004002060002B3FD1B6
:1029FC00002D40F095807546082A0BD12368DA0724
:102A0C0008D5236962689A42DEBF302305F8013C81
:102A1C0005F1FF35AEEB05032361CDF800803B4695
:102A2C0003AA21463046FFF7EDFE013055D14FF099
:102A3C00FF3005B0BDE8F08381F845203C492268A1
:102A4C00186812F0800F00F104051D6001D00368B6
:102A5C0002E05506FBD50388D00744BF42F02002A4
:102A6C0022601BB9226822F0200222601022B1E7FA
:102A7C007546B3FBF2F002FB1033CB5C05F8013D5D
:102A8C0003460028F5D1B7E708681A6810F0800FE4
:102A9C00496904D0101D18601368196007E010F024
:102AAC00400F02F1040018601368F6D0198000235F
:102ABC0075462361B1E71A68111D1960156800216C
:102ACC006268284600F036F808B1401B6060636805
:102ADC002361002384F843309FE723692A46394653
:102AEC003046C0470130A2D023689B0707D500258C
:102AFC0004F11909E368039A9B1A9D4205DBE0680F
:102B0C00039B9842B8BF184693E701234A463946BF
:102B1C003046C04701308AD00135EBE7002BA7D1F6
:102B2C000B7804F1420584F8423065E7292E000841
:102B3C00182E000810B5C9B202449042034601D1C8
:102B4C00002010BD1C7801308C42F6D1184610BD07
:102B5C0010B5431E0A44914200D110BD11F8014B2F
:102B6C0003F8014FF7E7884210B501EB020303D8D5
:102B7C00421E99420CD110BD9842F9D28118D21A3A
:102B8C00D34200D110BD13F8014D01F8014DF7E708
:102B9C0011F8014B02F8014FEBE7000038B5054680
:102BAC00002943D051F8043C0C1F002BB8BFE4188B
:102BBC0000F0D4F81E4A1368104633B963601460F1
:102BCC002846BDE8384000F0CAB8A3420BD92168AA
:102BDC006218934201BF1A685B68521822606360E6
:102BEC000460EDE713465A680AB1A242FAD9196893
:102BFC005818A0420BD12068014458188242196021
:102C0C00DED110685268014419605A60D8E702D9C5
:102C1C000C232B60D4E7206821188A4201BF11686D
:102C2C0052680918216062605C60C9E738BD00BF5A
:102C3C00D800002070B5CD1C25F0030508350C2DEF
:102C4C0038BF0C25002D064601DBA94203D90C2305
:102C5C003360002070BD00F081F8234A14682146CF
:102C6C0091B9224C23681BB9304600F067F82060FC
:102C7C002946304600F062F8431C26D10C2330461E
:102C8C00336000F06CF8E4E70B685B1B1AD40B2B79
:102C9C000FD90B60CC18CD50304600F060F804F121
:102CAC000B00231D20F00700C31A1BD05A42E25020
:102CBC0070BD8C420BBF63684B681360636018BFB8
:102CCC000C46E9E70C464968CAE7C41C24F0030427
:102CDC00A04205D0211A304600F030F80130CDD09A
:102CEC002560D9E770BD00BFD8000020DC000020B3
:102CFC00F8B5074614460E4621B91146BDE8F84012
:102D0C00FFF798BF22B9FFF749FF25462846F8BDC3
:102D1C0000F026F884420FD921463846FFF78AFF87
:102D2C0005460028F2D031462246FFF711FF314606
:102D3C003846FFF733FFE9E73546E7E738B50023B8
:102D4C00054C054608462360FEF736F9431C02D1B4
:102D5C00236803B12B6038BD7C020020704770479C
:102D6C0051F8040C0028A0F10400BCBF0B58C0188B
:102D7C0070470000F8B500BFF8BC08BC9E46704711
:0C2D8C00F8B500BFF8BC08BC9E467047BC
:102D980002030405060708090A0B0C0D0E0F101094
:102DA80054454D503A2025642E2564200A0D73653C
:102DB80074543A2025642E2564200A0D4B703A205D
:102DC80025642E2564200A0D54693A2025642E2591
:102DD80064200A0D54643A2025642E2564200A0DC7
:102DE800200A0D200A0D000000000000000000016C
:102DF8000203040607080900000000010203042377
:102E08002D302B2000686C4C0065666745464700EE
:102E18003031323334353637383941424344454608
:102E2800003031323334353637383961626364659E
:042E38006600000030
:042E3C003101000858
:042E40000D01000878
:102E4400000020422D00000000007041140000002A
:102E54000000F0411E0000000000F0411E000000D0
:102E64000024F400010000001000000030000020E5
:102E7400000000000000000000000000000000004E
:102E8400000000000000000000000000000000003E
:102E9400000000000000000000000000000000002E
:102EA400000000000000000000000000000000001E
:102EB400000000000000000000000000000000000E
:102EC40000000000000000000000000000000000FE
:040000050800247952
:00000001FF
